S010000053656D61666F726F2E73726563D8
S315000000006821FE1F51340000112F00004D340000FE
S315000000104D3400004D3400004D3400000000000057
S315000000200000000000000000000000004D34000049
S315000000304D340000000000004D3400004D34000037
S31500000040790F0000790F0000FFFFFFFFFFFFFFFFA2
S31500000050FFFFFFFFFFFFFFFFFFFFFFFFFFFFFFFFAA
S31500000060FFFFFFFFFFFFFFFFFFFFFFFFFFFFFFFF9A
S31500000070FFFFFFFFFFFFFFFFFFFFFFFFFFFFFFFF8A
S31500000080FFFFFFFFFFFFFFFFFFFFFFFFFFFFFFFF7A
S31500000400FFFFFFFFFFFDFFFFFFFFFFFFFFFFFFFFF8
S31500000410FFFFFFFFFFFFFFFFFFFFFFFFFFFFFFFFE6
S31500000420FFFFFFFFFFFFFFFFFFFFFFFFFFFFFFFFD6
S31500000430FFFFFFFFFFFFFFFFFFFFFFFFFFFFFFFFC6
S31500000440FFFFFFFFFFFFFFFFFFFFFFFFFFFFFFFFB6
S31500000450FFFFFFFFFFFFFFFFFFFFFFFFFFFFFFFFA6
S31500000460FFFFFFFFFFFFFFFFFFFFFFFFFFFFFFFF96
S31500000470FFFFFFFFFFFFFFFFFFFFFFFFFFFFFFFF86
S31500000480FFFFFFFFFFFFFFFFFFFFFFFFFFFFFFFF76
S31500000490FFFFFFFFFFFFFFFFFFFFFFFFFFFFFFFF66
S315000004A0FFFFFFFFFFFFFFFFFFFFFFFFFFFFFFFF56
S315000004B0FFFFFFFFFFFFFFFFFFFFFFFFFFFFFFFF46
S315000004C0FFFFFFFFFFFFFFFFFFFFFFFFFFFFFFFF36
S315000004D0FFFFFFFFFFFFFFFFFFFFFFFFFFFFFFFF26
S315000004E0FFFFFFFFFFFFFFFFFFFFFFFFFFFFFFFF16
S315000004F0FFFFFFFFFFFFFFFFFFFFFFFFFFFFFFFF06
S315000005002C01FE1F0B0006503001FE1F0C00065882
S3150000051020000000200001002F0000002F00010035
S315000005200C00010011000000300000003000010046
S31500000530240000002400010024000200240003001F
S31500000540240004002400050013000000170000002A
S315000005502300000021000000210001000700000028
S31500000560070001000700020007000300070004005F
S31500000570070005000700060007000700120000003C
S3150000058044000000080000000B00000041000000CD
S31500000590400000004000010004000000430000008D
S315000005A02B0000002B000A002B000B002B000C0078
S315000005B02B000D002B0001002B0002002B00030076
S315000005C02B0004002B0005002B0006002B00070063
S315000005D02B0008002B0009000600000006000A0098
S315000005E006000B0006000C0006000D0006000E00BB
S315000005F006000F00060001000600020006000300C8
S3150000060006000400060005000600060006000700B6
S31500000610060008000600090015000000150001008C
S3150000062015000200310000002A000000450000000D
S315000006301000000003010000030000000300010099
S315000006400F0000000D0000002D0000004200000019
S315000006502C0000002C0001002C0002002C000300DE
S3150000066032000000280000001800000014000000FE
S31500000670140001001400020014000300140004001A
S3150000068014000500140006001400070014000800FA
S3150000069014000900340000003400010016000000B8
S315000006A0160001003500000036000000360001008B
S315000006B02200000033000000330100002900000082
S315000006C010B5054C237833B9044B13B10448AFF386
S315000006D000800123237010BDB000FE1F0000000043
S315000006E0E8430000084B10B51BB108490848AFF3B2
S315000006F000800848036803B910BD074B002BFBD0E8
S31500000700BDE81040184700BF00000000B400FE1FFF
S31500000710E84300000800FE1F0000000070B4104C03
S315000007202368020A9A4216D26668C0B200F1100522
S31500000730012356F8226003FA05F535420BD069B15C
S3150000074000EB0210A36853F82030C3F340030020E7
S315000007500B7070BC7047032070BC70471846FBE7EF
S315000007607800FE1F084B1A68000A904201D3032046
S31500000770704731B1DA684301043200209B580B8080
S3150000078070470120704700BF7800FE1F084B1A68AB
S31500000790000A904201D30320704739B1DA68430159
S315000007A0043200209B581B0C0B80704701207047B9
S315000007B07800FE1F70B4134C2268030A93421CD2C1
S315000007C06668C0B200F11005012256F8236002FAED
S315000007D005F5354211D099B1E4685B01043402FA9B
S315000007E000F01C5983B203EA1440834213BF002071
S315000007F000200A70087070BC7047032070BC7047F8
S315000008001046FBE77800FE1F0C4B10B41C68000A6C
S31500000810A04200D21AB903205DF8044B7047DB688A
S315000008205DF8044B083303EB401022EA0103114044
S3150000083041EA034141600020704700BF7800FE1F77
S31500000840134A70B41468030AA3420AD25668C0B2A7
S3150000085000F11004012556F8236005FA04F4344229
S3150000086002D1032070BC70470129FAD80BD005FAD3
S3150000087000F000040021D268083202EB431308435B
S3150000088058600020EEE701FA00F081B20020F2E79E
S315000008907800FE1F40B1012304210222017043703B
S315000008A0C37082700020704701207047012901D96A
S315000008B0032070472C4BF0B51C68020AA2424ED2A8
S315000008C05D68C0B200F11006012455F82250B4400C
S315000008D02C4244D000EB02109C681D6954F820306D
S315000008E001293ED023F00101204E0E40EFF3108780
S315000008F0012383F310881E4B1A8892B222B94FF057
S31500000900400EEA7085F803E01A88013292B21A8026
S3150000091087F31088CF0354F8202007D5154F22F40B
S3150000092080320F4044F8202044F8207044F82060BC
S31500000930EFF31081012282F310881A880C4892B2D4
S315000009401AB10288013A92B202801B889BB213B98F
S315000009508022EB70EA7081F310880020F0BD03203E
S31500000960F0BD43F00101BFE77800FE1FD5FC011F73
S31500000970CC00FE1FD5FC001F0AB9032070470B4BA5
S3150000098010B41C68000AA0420CD2DB6822EA0104FB
S31500000990400108330A4042EA0442C2505DF8044B63
S315000009A00020704703205DF8044B70477800FE1F57
S315000009B00AB9032070470E4B70B41C68000AA042A7
S315000009C012D24001DD682C582B5802EA0106344346
S315000009D0A4B261EA02011B0C04EA01021B041A43D9
S315000009E02A50002070BC7047032070BC704700BFBF
S315000009F07800FE1F2DE9F041002840D00968002745
S31500000A0001EBC00EB8464FF0010C8D881D4C40F22C
S31500000A10024295424FF0000306D00133032B11D05A
S31500000A2034F8022F9542F8D10A6802F0B852B2F1B2
S31500000A30807F1DD00CFA03F6013347EA0602032B2A
S31500000A40D7B2EDD108317145DFD1FF43FFB20120A6
S31500000A5002F0CCFC0C4B93F8BB2442EA080808EAE7
S31500000A60070783F8BB740120BDE8F04102F08EBC95
S31500000A700CFA03F048EA00085FFA88F8CDE78046EA
S31500000A80FF27E4E7F439000000E0014070B582B0CA
S31500000A9002AB002403F8044D054618460E4602F044
S31500000AA017FA9DF80430DB0702D4062002B070BDA9
S31500000AB0202D02D9032002B070BD012EFAD8084BB2
S31500000AC01A69137805D02B4303F0300320461370C0
S31500000AD0ECE703F0300323EA050520461570E5E749
S31500000AE07800FE1F002866D02DE9F84F4368002BDA
S31500000AF05ED08046011D0088FFF77CFFB8F8003005
S31500000B00002B52D02D4CDFF8B8E0A1460022012080
S31500000B104FF0400B4FF0800AD8F80430DEF8107022
S31500000B2053F83260DEF8085003EBC20399880B0ACB
S31500000B30C9B201EB0313EFF3108C80F31088218800
S31500000B4089B211B9F97087F803B02188013189B2E9
S31500000B5021808CF3108816F4803F55F8231007D0B7
S31500000B6021F4803126F4803C45F8231045F823C053
S31500000B7045F82360EFF3108180F3108823889BB239
S31500000B802BB1B9F80030013B9BB2A9F8003023889D
S31500000B909BB213B9FB7087F803A081F3108801326A
S31500000BA0B8F8003092B29342B6D80020BDE8F88F6C
S31500000BB00120BDE8F88F0120704700BFCC00FE1F62
S31500000BC07800FE1F002831D04368002B2ED0F0B5E8
S31500000BD087B006AD00230922019305F8142D144AA7
S31500000BE0144CD7680293064603930493059302A90F
S31500000BF02846B847029BE3600A22BDF80C308DF800
S31500000C00042002A9059A626028462360B84701229B
S31500000C10029B8DF8052002A92846A360B847029BCF
S31500000C2023613046FFF75EFF07B0F0BD0120704735
S31500000C30A83A00007800FE1F2DE9F041304C2368E9
S31500000C40070A9F4284B00BD262685FFA80F808F107
S31500000C501003012652F8272006FA03F3134203D1A4
S31500000C60032004B0BDE8F0810D4604A902AA03469C
S31500000C7041F80C2D3046ADF80C300295ADF8006009
S31500000C80FFF7B8FE2069A46808EB0711EFF3108799
S31500000C9086F310881B4B1A8892B212B94026C2708E
S31500000CA0C6701A88013292B21A8087F31088EE0352
S31500000CB054F8212007D522F4803225F4803644F8F2
S31500000CC0212044F8216044F82150EFF310810122DD
S31500000CD082F310881A880B4C92B25AB91B889BB2C1
S31500000CE013B98022C370C27081F31088002004B04B
S31500000CF0BDE8F0812288013A92B22280EEE700BF79
S31500000D007800FE1FCC00FE1F012901D90320704781
S31500000D102C4BF0B51C68020AA2424ED25D68C0B2E6
S31500000D2000F11006012455F82250B4402C4244D05C
S31500000D3000EB02109C681D6954F8203000293ED053
S31500000D4043F00401204E0E40EFF31087012383F396
S31500000D5010881E4B1A8892B222B94FF0400EEA70E4
S31500000D6085F803E01A88013292B21A8087F3108858
S31500000D70CF0354F8202007D5154F22F480320F40B8
S31500000D8044F8202044F8207044F82060EFF31081E6
S31500000D90012282F310881A880C4892B21AB102888E
S31500000DA0013A92B202801B889BB213B98022EB7083
S31500000DB0EA7081F310880020F0BD0320F0BD23F017
S31500000DC00401BFE77800FE1FD5FC011FCC00FE1F03
S31500000DD0D5FC001F80B1094B02689A4201D007205A
S31500000DE0704710B44468427CA35C61F30103A354CA
S31500000DF000205DF8044B70470120704755434900B9
S31500000E0068B1084B02689A4201D0072070474168D2
S31500000E10427C8B5C43F080038B540020704701209A
S31500000E20704700BF5543490068B1084B02689A42B3
S31500000E3001D0072070474168427C8B5C6FF3C71373
S31500000E408B54002070470120704700BF554349006E
S31500000E5020B1034B1B6803600020704701207047D8
S31500000E601C3A0000B0B10E4B02689A4201D007202E
S31500000E70704790F9103013F1210F0DD0002B0DDBC8
S31500000E8003F01F0007495B090122824041F8232035
S31500000E90002070470120704764207047002070478B
S31500000EA05543490000E100E0E0B1114B02689A4267
S31500000EB001D00720704790F9103013F1210F13D09D
S31500000EC0002B13DB5A09203201210A4803F01F03C5
S31500000ED001FA03F340F82230BFF34F8FBFF36F8F51
S31500000EE0002070470120704764207047002070473B
S31500000EF05543490000E100E0002834D01B4B02684E
S31500000F009A4201D00720704710B590F91030417C05
S31500000F1082B00024062213F1210F0194ADF80610C9
S31500000F208DF8042017D0A3420FDB5A092032012185
S31500000F300F4C03F01F0301FA03F344F82230BFF30A
S31500000F404F8FBFF36F8F90F910300A4A126852F82C
S31500000F50333000221A60044601A802F0C1F90020CD
S31500000F60206002B010BD0120704700BF5543490004
S31500000F7000E100E00040000000B583B0EFF303831A
S31500000F800C4A103B12685BB252F833301B689A6801
S31500000F9032B102A8D9685B7C40F8081D01939047DE
S31500000FA0EFF30380103840B202F03AF903B05DF86F
S31500000FB004FB00BF00400000F0B583B002AB002484
S31500000FC043F8044D1546214E44801A460C463369B3
S31500000FD0297898479DF904302374A0B913F1210F9D
S31500000FE011D01B496A780968002B26DB03F16040A3
S31500000FF0120100F56140D2B280F8002351F8332087
S315000010002B7914600BB903B0F0BD94F9100002F00F
S3150000101007F994F91020002AF5DB53099B0003F128
S31500001020604303F56143012102F01F0201FA02F257
S31500001030C3F880211A6003B0F0BD064803F00F061E
S3150000104012013044D2B20276D8E700BFA83A0000B7
S3150000105000400000FCEC00E019B310B3F0B5054603
S3150000106087B02B480023062201930C460293039374
S315000010700493059302A9C3688DF8042001A8984734
S3150000108068B9BDF80E30029A6A60C3F38003013373
S31500001090DB002278DBB2934205D840F27A5007B0E3
S315000010A0F0BD01207047A36813B16378FF2B08D009
S315000010B001A8ADF8062002F0DFF8064618B10820B0
S315000010C0EDE70320EBE7A268E368EB60AA6023780C
S315000010D06B7401A822462946FFF76EFF69686A7C91
S315000010E0E0788B5C0B4F60F305138B5469686A7C60
S315000010F0A0788B5C60F301038B5469686A7C607925
S315000011008B5C60F3C7138B5430462F60C7E700BF74
S31500001110A83A000055434900024658B1064B074914
S315000011201B68002B08BF0B460020596803EB8103A0
S3150000113013607047012070478C00FE1FA83B00001B
S3150000114088B10A4B1B6863B15A6800F1100103EBC2
S31500001150820353F8042F40F8042B8142F9D1002072
S3150000116070471C2070470120704700BF8C00FE1F8F
S3150000117070B36AB3174BF0B51E681EB3164B0778EB
S315000011801B68002404E00134A64203F1080319D0C9
S315000011909D79BD42F7D193F805E04588B5EB9E0FE2
S315000011A0F1D1DD7990F801E005F0070CF445EAD1BC
S315000011B0B1EBD50FE7D19B881470C3F309035380B5
S315000011C00020F0BDDF21FF23117053800B20F0BDFE
S315000011D0012070470401FE1F0040000020B1034BB0
S315000011E01B6803600020704701207047C03A00006A
S315000011F070B42A4C216851B1234604F57F70002251
S3150000120001E053F8041F83420A44FAD11AB100BE22
S315000012101D2070BC70472248224902600B681D0CD5
S31500001220B5F5807F02D0002070BC70471D68013D77
S315000012300335F8D81C4D5E6AAE42F4D103600968E6
S315000012406368486804EB830301EB800101F1230026
S31500001250233301214FF47E4503E001310138013B80
S31500001260013225FA02F4E40707D5072A09D0082A2D
S315000012700CD01E780478A642C9D11029EDD10020E1
S31500001280D2E706781C78A642E7D2C0E70478372C66
S31500001290E3D01E78A642E0D0B9E700BFA83B000025
S315000012A08C00FE1F9CB17F4052374653002869D000
S315000012B0002967D08A4B2DE9F0419C68077803EB3B
S315000012C08404A27897424AD24FEA171C04EB8C0694
S315000012D007F00F0E358925FA0EF818F0010F3ED0EB
S315000012E0BEF1070FB67A09D904EB8C0C07F0070E8E
S315000012F09CF80B7007F00F073E442D0A794FDFF874
S31500001300E8C117F80EE0764F0EEA050512091CF83B
S3150000131005500232354404EB820202EB450632F8F0
S3150000132015207578C2F309022D0603EB820314D546
S3150000133017F8222045785208E5B14FF0020E012633
S3150000134004271C78E40705F1FF3540D5052A3CD86B
S31500001350DFE802F009352924221A002B75D14FF453
S31500001360AF60BDE8F0810C2213441A785408224677
S31500001370002DE6D1042A00F2AF80DFE802F04141F9
S3150000138041532C00012070479C78E21C1EFB04642C
S3150000139004EB92029200E7E70822E5E79A7817FB4A
S315000013A002629200E0E793F804C09C781CFB04F20A
S315000013B0D41C0CF1030204EB92029200D4E71A79D2
S315000013C0033222F003020C32CEE70022CCE740F2D1
S315000013D07950BDE8F081DA78C2F303124A72DA78FE
S315000013E0C2F303028A725878C88000228A800A7281
S315000013F0CA605B680B608307E9D50020BDE8F08111
S31500001400DC78C4F303144C72DC78C4F303048C72E6
S315000014101D79ACB28C804088844231D840F27A5033
S31500001420BDE8F081DA78C2F303124A72DA78C2F3C1
S3150000143003028A725A78CA809A788A800433042012
S315000014400022CB6008720A60D7E74578002DBED12E
S31500001450DD786668C5F303144C72DC780125C4F3A5
S3150000146003048C728D8040880028D7D137F822205B
S3150000147006EB02260E609B78CB800872C860BCE73C
S31500001480DC889E68012A00FB04640C601BD0022ADB
S3150000149008D0B3F80140CC8000230B72CB60002C3F
S315000014A0BCD0AAE71A180335147BCC809A780A7246
S315000014B000FB02F000EB950203EB82030C33CB60DA
S315000014C0002CABD099E7034400221C7BCC800A7227
S315000014D0CA60002CA2D090E76420BDE8F08100BF6E
S315000014E0A83B0000203A0000283A0000034B0430D5
S315000014F01B6823F820100020704700BFD000FE1F95
S31500001500034B021D1B68002023F82200704700BF12
S31500001510D000FE1F034B1A68137843F08003137044
S3150000152000207047D000FE1F034B1A6813786FF334
S31500001530C713137000207047D000FE1F20B1034B65
S315000015401B6803600020704701207047E03A0000E6
S3150000155060B1012808D1094B1B68002040214122B7
S31500001560187119711A71704701207047034B1B6877
S3150000157040214122987099709A707047D000FE1FE2
S31500001580002836D070B5054686B01B4800230B22CE
S315000015900193029303930493059302A9C3688DF8FC
S315000015A0042001A89847044608B106B070BD134E42
S315000015B0029B336001A801F0FDFD6B6873B13068D2
S315000015C02346AA6812F8231002EB830204315288DC
S315000015D020F821206A6801339A42F2D82878002838
S315000015E0E3D032681378002043F08003137006B00E
S315000015F070BD0120704700BFA83A0000D000FE1F52
S31500001600094A0A4B12680A48916910B4D4691960EC
S315000016104FF400420021DC60586059619A601A61FB
S315000016205DF8044B704700BFA800FE1F9000FE1F28
S3150000163000127A00324B1B6893F8283013F0300200
S315000016402FD0102A05D0202A33D02E4A00235361EA
S315000016507047028D2C4902F0030231F8121001B3D3
S315000016605B0610B41ED40324264A038D52F82400C8
S315000016705DF8044B06EE900A07EE901AF8EE666ADD
S31500001680F8EE677AC3F3052386EEA77A013307EEF1
S31500001690903AFAEEEF7A67EE277AFCEEE77AC2ED39
S315000016A0057A7047038D13F0100F0CBF0324002436
S315000016B0DAE790F82B30154A9B0932F81310002907
S315000016C0EFD0104A90F82B3007EE901AF8EE676AC2
S315000016D0D2ED037AB8EE676A03F01F0386EE267A28
S315000016E007EE903AF8EE677AF7EE006A77EEA67A9A
S315000016F067EE277AFCEEE77A17EE903A5361704769
S31500001700A800FE1F9000FE1FEC3A0000E43A00001D
S31500001710F8B50D4B06461B68002093F8217093F828
S3150000172020400D4601F062FE96F81334BD405BB2D0
S315000017305D402C405C40E4B286F813440020BDE8CE
S31500001740F84001F023BE00BFA800FE1FF8B50D4B00
S3150000175006461B68002093F8237093F822400D4636
S3150000176001F044FE96F88134BD405BB25D402C40EA
S315000017705C40E4B286F881440020BDE8F84001F000
S3150000178005BE00BFA800FE1F38B505460C46002062
S3150000179001F02CFE052C0AD8DFE804F019242F03EB
S315000017A03A0E95F832306FF3000385F83230002098
S315000017B0BDE8384001F0EABD95F82A306FF3000322
S315000017C085F82A300020BDE8384001F0DFBD95F8E5
S315000017D036306FF3000385F836300020BDE8384018
S315000017E001F0D4BD95F838306FF3000385F8383032
S315000017F00020BDE8384001F0C9BD95F890346FF37C
S31500001800000385F890340020BDE8384001F0BEBDE5
S3150000181095F880346FF3000385F880340020BDE826
S31500001820384001F0B3BD00BF38B505460C46002070
S3150000183001F0DCFD052C0AD8DFE804F019242F039B
S315000018403A0E95F8323043F0010385F83230002025
S31500001850BDE8384001F09ABD95F82A3043F00103FF
S3150000186085F82A300020BDE8384001F08FBD95F894
S31500001870363043F0010385F836300020BDE83840A5
S3150000188001F084BD95F8383043F0010385F838300F
S315000018900020BDE8384001F079BD95F8903443F05A
S315000018A0010385F890340020BDE8384001F06EBD94
S315000018B095F8803443F0010385F880340020BDE8B4
S315000018C0384001F063BD00BF03290ED0052907D0BB
S315000018D009B10020704790F83C0000F00100704705
S315000018E090F83C00C0F34010704790F83C00C0F3FD
S315000018F0C000704705292ED8DFE801F00A11181F2D
S31500001900260390F82A0000F0010080F001007047DD
S3150000191090F8360000F0010080F00100704790F862
S31500001920380000F0010080F00100704790F8900444
S3150000193000F0010080F00100704790F8320000F0DE
S31500001940010080F00100704790F8800400F001006B
S3150000195080F0010070470020704700BF036A90F8CE
S315000019602630704738B5044600200D4601F03EFD8E
S3150000197094F8133465F3861384F813340020BDE815
S31500001980384001F003BD00BF38B5044600201546B7
S3150000199001F02CFD94F8A23065F3030384F8A2301D
S315000019A00020BDE8384001F0F1BC00BF084B1B68C1
S315000019B093F8283013F0300F04D104288CBF002090
S315000019C00120704705288CBF00200120704700BF0A
S315000019D0A800FE1F06288CBF00200120704700BF0C
S315000019E090F8260000F00700704700BF38B504469F
S315000019F000200D4601F0FAFC94F8263065F3020348
S31500001A0084F826300020BDE8384001F0BFBC00BF96
S31500001A10074B1B6893F828305B0601D403207047F8
S31500001A20038D13F0100F0CBF03200020704700BF7A
S31500001A30A800FE1F38B5044600200D4601F0D6FC6E
S31500001A40238D032D0CBF6FF3041343F0100323857E
S31500001A500020BDE8384001F099BC00BF38B51F4CE6
S31500001A602DED028B236893F8283003F03003102BFA
S31500001A700546B0EE408A19D0202B02D0BDEC028B71
S31500001A8038BD002001F0B2FCFCEEC87A95F82B2098
S31500001A9017EE903A013B63F3040285F82B20BDEC68
S31500001AA0028B0020BDE8384001F070BC002001F038
S31500001AB09DFC78EE087A2A8DFCEEE77A002017EE78
S31500001AC0903A013B63F30D222A8501F05FFC2368FF
S31500001AD093F8283003F03003CEE700BFA800FE1FBE
S31500001AE070B51A4C236893F8283003F03003102B96
S31500001AF082B0054615D0202B01D002B070BD144B24
S31500001B00002033F8114001F071FC95F82B300020CD
S31500001B1064F3871385F82B3002B0BDE8704001F0FE
S31500001B2035BC0C4B0191002033F8116001F05EFCCE
S31500001B302B8D66F301032B85002001F027FC23681B
S31500001B40019993F8283003F03003D4E7A800FE1F6C
S31500001B50FC3A0000F43A000038B51A4B1A6892F8BD
S31500001B60293092F82A200546180748BF08784FF012
S31500001B70000448BF60F30E34D80644BF487860F3CB
S31500001B800A24980644BF887860F30614580644BFB2
S31500001B90C87860F30204D20744BF0A7962F312449C
S31500001BA01B0644BF4B7963F31E748B79002063F3E5
S31500001BB01A6401F01BFC2C620020BDE8384001F0DD
S31500001BC0E5BB00BFA800FE1F036AC3F302330B7018
S31500001BD0036AC3F302234B70036AC3F302138B70C9
S31500001BE0036AC3F30203CB70036AC3F302430B71A8
S31500001BF0036AC3F302734B71036AC3F302638B7107
S31500001C00704700BF144B42781B6893F8241091422A
S31500001C101ED393F8262090ED017A07EE902AF8EE6F
S31500001C20677AF4EEC77AF1EE10FA11D493F82530FC
S31500001C3007EE903AF8EE677AB4EEE77AF1EE10FA2C
S31500001C4006D40078032805D0B0FA80F04009704722
S31500001C500020704701207047A800FE1F062921D8E2
S31500001C60DFE801F0080C1014181C0400006AC0F329
S31500001C7002607047006AC0F302307047006AC0F322
S31500001C8002207047006AC0F302107047006A00F035
S31500001C9007007047006AC0F302407047006AC0F34D
S31500001CA0027070470020704708B50246FFF7D6FF5E
S31500001CB092F82630034A03F0070352F8233023FA3A
S31500001CC000F008BD9000FE1F024B53F82000C840EC
S31500001CD0704700BF9000FE1F30B5044683B0012058
S31500001CE00D4601F083FB02A8002300F8013D00F039
S31500001CF0D1FF94F8AA30DA06FBD494F8A030C3F3E7
S31500001D000013002BF5D194F8AA2063F3000284F89F
S31500001D10AA2094F8AA30DB06FBD494F8A030D806A3
S31500001D20F7D494F8A030042D0CBF43F0030365F3F9
S31500001D30010384F8A03094F8AA30D906FBD494F8AD
S31500001D40A030C3F30013002BF5D1042D16D094F860
S31500001D50AA2063F3000284F8AA2094F8AA30DA06CF
S31500001D60FBD494F8A030DB06F7D49DF8070000F00A
S31500001D70A5FF012001F00AFB03B030BD94F8AA309C
S31500001D8043F0010384F8AA30E7E700BF90F8AA30D1
S31500001D90DB075ABF90F8A00000F00300042070474C
S31500001DA010B50446002001F021FB94F8403043F0C2
S31500001DB0800384F8403094F8403043F0010384F8FF
S31500001DC040300020BDE8104001F0E0BA10B50446EE
S31500001DD0002001F00BFB94F840306FF3000384F809
S31500001DE0403094F840306FF3C71384F84030002039
S31500001DF0BDE8104001F0CABA90F84000C00970472B
S31500001E0090F8410000F00100704700BF38B590F827
S31500001E10413013F0010401D1002038BD05460020F1
S31500001E2001F0E4FA95F841306FF3000385F841308C
S31500001E30002001F0ABFA204638BD00BF38B5044695
S31500001E4000200D4601F0D2FA94F8303065F3000315
S31500001E5084F830300020BDE8384001F097BA00BF62
S31500001E6010B50446002001F0C1FA94F8523043F050
S31500001E70010384F852300020BDE8104001F086BA14
S31500001E8010B50446002001F0B1FA94F852306FF311
S31500001E90000384F852300020BDE8104001F076BA05
S31500001EA070B5044600200D46164601F09FFA94F8D8
S31500001EB03E306FF3C71384F83E3094F83E3066F335
S31500001EC0061384F83E3094F83E3065F3020384F836
S31500001ED03E300020BDE8704001F058BA10B5044607
S31500001EE0002001F083FA94F83E3043F0800384F832
S31500001EF03E300020BDE8104001F048BA10B5044657
S31500001F00002001F073FA94F83E306FF3C71384F89B
S31500001F103E300020BDE8104001F038BA10B5044646
S31500001F20002001F063FA94F8533043F0010384F87B
S31500001F3053300020BDE8104001F028BA10B5044621
S31500001F40002001F053FA94F853306FF3000384F83D
S31500001F5053300020BDE8104001F018BA38B50446E9
S31500001F6000200D4601F042FA94F8243065F306137A
S31500001F7084F824300020BDE8384001F007BA00BFDD
S31500001F8070B40F4B0F4C1D68002101381960B0F179
S31500001F90807F94F823200ED2D2B2F026072502F0D5
S31500001FA0F002586084F8236099601D6084F823204D
S31500001FB0012070BC70471D60084670BC704700BFAA
S31500001FC010E000E000ED00E090F8503061F303030C
S31500001FD080F85030704700BF90F8500000F00F00B6
S31500001FE0704700BF90F8503043F0800380F85030BF
S31500001FF0704700BF90F850306FF3C71380F8503029
S31500002000704700BF90F85000C009704790F8D13073
S3150000201021B16FF3000380F8D130704743F001031C
S3150000202080F8D130704700BF90F8D13043F080037C
S3150000203080F8D130704700BF90F8D1306FF3C713E6
S3150000204080F8D130704700BF90F8D100C0097047C2
S3150000205038B5044600200D4601F0C8F994F8A530BD
S3150000206065F3020384F8A5300020BDE8384001F08E
S315000020708DB900BF20B1034B1B6803600020704779
S3150000208001207047783B000030B52A4C87B02046C7
S3150000209000F024FF06A800250323009500F8183D4C
S315000020A0254B029502A9DB6803950495059598478B
S315000020B0029860604FF6FF7329460193FFF71AFCFA
S315000020C028B910E0019B43B1019B013B019300211C
S315000020D06068FFF7F9FB0028F4D0019B1BB94FF4A9
S315000020E0CD7007B030BD60680621FFF7B1FF4FF62F
S315000020F0FF730193FFF784FA04216068FFF794FBEE
S3150000210004E0019B43B1019B013B019304216068FC
S31500002110FFF7F0FB0028F4D1019B002BDFD005224E
S3150000212004216068FFF71AFC60680021FFF70EFBC8
S315000021300020D6E7A800FE1FA83A000070B169B1DA
S3150000214070B5074E044670680D46FFF749FC2946F0
S3150000215020707068FFF738FD002070BD01207047C1
S31500002160A800FE1F70B582B0002940D005460028A1
S315000021703AD0344C6068FFF709FE0428064633D08F
S3150000218069466068FFF720FD23689A680AB1032E46
S3150000219037D0DA68F2B1022E1CD193F8292059699A
S315000021A0160733D4D00638D496063BD450063ED410
S315000021B0120603D59DF805208A422BD393F82A30C0
S315000021C0DB0703D59DF804308B4223D39DF80630F8
S315000021D08B421FD32946012000F092FE6068FFF76C
S315000021E0DFFD002002B070BD012002B070BD154DAC
S315000021F06868FFF705FE0446F0B14FF4CB7002B0F5
S3150000220070BD93F8292019691007CBD59DF80000F9
S315000022108842C7D2052002B070BD9DF801008842F1
S31500002220C2D2F7E79DF802008842BFD2F2E79DF8D6
S3150000223003008842BCD2EDE76868FFF7C7FD204679
S31500002240D3E700BFA800FE1F38B5124C6068FFF741
S31500002250D7FD78B16068FFF7C3FB236893F8283091
S3150000226013F0300F054603D05B0608D405280DD0C1
S31500002270032D0BD06068FFF7C9FD002038BD6068EC
S31500002280FFF7C6FB052DF3D10328F3D140F29710D3
S3150000229038BD00BFA800FE1F08B5034B01465868AD
S315000022A0FFF7CCFD002008BDA800FE1F08B5034BB4
S315000022B05868FFF7D5FD002008BD00BFA800FE1F27
S315000022C008B5034B5868FFF7DBFD002008BD00BFCB
S315000022D0A800FE1F08B5044B0A4601465868FFF7DA
S315000022E0DFFD002008BD00BFA800FE1F08B5034B98
S315000022F05868FFF7F3FD002008BD00BFA800FE1FC9
S3150000230008B5034B5868FFF7F9FD002008BD00BF6C
S31500002310A800FE1F38B50446FFF748FB08B903209E
S3150000232038BD631E012B12D9042C10D0052C0CD8F5
S315000023302923E340DB0708D5104D21466868FFF7DF
S31500002340D9FA70B94FF4C87038BD002038BD0B4BB0
S3150000235021465868FFF7CEFA0028F3D040F29110D4
S3150000236038BD21466868FFF7AFFA40F2931300289C
S315000023700CBF18464FF4C97038BD00BFA800FE1F39
S3150000238070B506464FF6FE7440F2931501E0013C27
S3150000239010D03046FFF7BEFFA842F8D048B1B0F5DE
S315000023A0C97F05D040F29113984208BF002070BD46
S315000023B0002070BD284670BDF0B583B00D460446BA
S315000023C0FFF7F4FA10B9032003B0F0BD634E052CF5
S315000023D02146706815D0FFF78DFA18B140F29110BA
S315000023E003B0F0BD012C5BD9032C23D0631E012B57
S315000023F065D9042C2ED0002C5BD0032C1FD00020D6
S31500002400E2E7FFF777FA002844D1002D4FD0706835
S31500002410FFF7E6FA0528E1D02846FFF7F3FB002888
S31500002420D1D029787068FFF765FA002862D14FF499
S31500002430CA70C9E77068FFF7A9FC042835D00321E4
S315000024407068464FFFF740FA0546002842D040F232
S315000024509310B9E74FF6FF73214670680193FFF7B3
S3150000246049FA3E4B002830D004217068FFF78CF9FA
S3150000247004E0019B43B1019B013B01930421706879
S31500002480FFF738FA0028F4D0019B002BB7D14FF4A0
S31500002490CD7099E77068FFF7CDF840F2911093E799
S315000024A07068FFF773FC0428A0D105208CE7012093
S315000024B08AE721467068FFF707FA0028C7D17068D7
S315000024C02146FFF761F900207EE701465868FFF7CD
S315000024D03DF9C9E73B68786893F82710FFF718F9C4
S315000024E029467868FFF73EFA786809220321FFF744
S315000024F04BFAE4E721467068FFF7E6F90028A6D113
S31500002500336893F828305B0603D529787068FFF79F
S3150000251091FA69787068114CFFF7E2FA95ED010AB5
S315000025207068FFF79BFA7068FFF784F8336893F8D2
S315000025302810052001F00F01FFF7C6FB33685B6822
S3150000254098428CBF002101216068FFF7C5FB7068C7
S315000025500521FFF719F9002036E700BFA800FE1F86
S3150000256070B582B00546FFF721FA10B9032002B014
S3150000257070BD304C6068FFF733FA85422FD00528CE
S3150000258028D0012D2ED0294660682A4EFFF7B2F9D1
S31500002590F0B1022D18D0042D2DD0052D18D82923E1
S315000025A0EB4003F0010383F001048BB12946706808
S315000025B0FFF78AF9002837D140F29310D7E7706801
S315000025C02946FFF797F918B129466068FFF72CF9F5
S315000025D00020CCE76068FFF71BFA8542D1D140F2B4
S315000025E09110C4E76068134EFFF706FC0028E6D09A
S315000025F040F29510BBE729467068FFF715F94FF6CC
S31500002600FF73019304E0019B43B1019B013B0193DE
S3150000261004216068FFF76EF90028F4D1019B002BB6
S31500002620D6D14FF4CD70A2E770682946FFF7FCF8C3
S3150000263020469CE7A800FE1F01280ED0022801D0E4
S315000026400020704708B508460021FFF7B5FE38B1EF
S3150000265040F29113984203D008BD0846FFF780BFA9
S31500002660002008BDF0B587B00C460546FFF79EF979
S3150000267010B9032007B0F0BD64B3694E326892F812
S315000026802930190720D52778A079B842F1D8617882
S315000026908F42EED894F803E0BE45EAD88842E8D8DF
S315000026A023F07F0303F0FF0113B163798342E0D384
S315000026B092F82A30DF0702D523798342D9D3042D35
S315000026C013D148B10520D5E76178E0788842D0D8A3
S315000026D0A079E3E70120CDE763790BB10029F1D1B9
S315000026E07068FFF789FB0028ECD1002170684C4F19
S315000026F0FFF7F2FA0023A1798DF8083028468DF805
S315000027001430FFF7E1FA062103907068FFF7CCFA60
S31500002710049002A800F04EFB0028ABD17868FFF7C2
S315000027205FF985420DD0052D0BD82923EB40D8073C
S3150000273007D578682946FFF7C7F810B940F2931015
S3150000274098E769467068364FFFF73EFA9DF806200F
S31500002750A3799A4221D221467868FFF7FDF92946E6
S315000027607868FFF743F900F015FB2E4B042D18602F
S315000027701CD0022D2AD0012D31D0032D3ED0052D9F
S3150000278037D070680621FFF78FFA0123049002A85C
S315000027908DF8083000F00EFB6CE729467868FFF7E5
S315000027A025F921467868FFF7D7F9DCE733681C4A34
S315000027B093F82810090617D49A685AB95B68002B53
S315000027C0DFD001217068FFF787FADAE733689A6885
S315000027D0002AF3D003217068FFF77EFAD1E7336849
S315000027E05B68002BCDD0ECE729465068FFF774FAFA
S315000027F0C7E733685B689842C3D8E2E733685A682C
S31500002800904201D9002ABCD19B68984204D9002B7A
S31500002810B7D0002ADED0D4E7002BB2D0DAE700BF6B
S31500002820A800FE1F1C01FE1F002870D02DE9F047EE
S3150000283086B0054606A8002300F8113D2F780493BC
S3150000284004A9CDF81330FFF779FC6C7DEE7C297D69
S31500002850EA7DAB7D8DF8084038462C7E8DF80A60FF
S315000028608DF809108DF80B208DF80C308DF80D4081
S31500002870FFF79CF818B9032006B0BDE8F0872B785F
S3150000288006AA134413F8103C012BF4D0022C40D0B6
S31500002890DFF8E480D8F8003093F8283013F0300FD2
S315000028A014BF06260526002440F2911905F1040AF4
S315000028B0052CE1B249D002AB185DFFF7BDFE08B1A9
S315000028C04845D9D10134A642F2D13846FFF758FD22
S315000028D00028D1D105F10C013846FFF7C3FE0028C8
S315000028E0CAD19DF80740A7420FD006AB234413F880
S315000028F0100C012823D0D8F80400FFF789F806AB9E
S31500002900034413F8103C012B10D00020B4E701203B
S3150000291070472879FFF74AF80028ACD02B7906AA29
S31500002920134413F8103C012BB2D1A4E7052CECD1CB
S315000029308742EAD001461846FFF77EFE9CE721460D
S31500002940FFF77AFE0028D6D096E79DF80D30022BC9
S31500002950B1D100212879FFF72FFD08B148458BD169
S315000029602879FFF70DFD5146002885D10520FFF790
S3150000297023FD0028A4D1A5E7A800FE1F51B170B51C
S3150000298000250D600C460646FFF724F828B90323F8
S31500002990184670BD012318467047044B31465868E7
S315000029A0FFF782F92B462060184670BDA800FE1F6F
S315000029B038B50E4D0E4C002000F018FD6868FFF784
S315000029C011FB01E06CB1013C6868FFF71BFB0028B6
S315000029D0F8D0002000F0DAFC002C0CBF14200020F8
S315000029E038BD00F0D3FC142038BD00BFA800FE1F80
S315000029F0FFFF0F00044B1B6893F8290010F001003D
S31500002A0000D17047FFF7D4BFA800FE1F38B50E4DA2
S31500002A100E4C002000F0EAFC6868FFF7EBFA01E0D4
S31500002A2064B1013C6868FFF7EDFA0028F8D100F0C0
S31500002A30ADFC002C0CBF1420002038BD204600F051
S31500002A40A5FC142038BD00BFA800FE1FFFFF0F0025
S31500002A50044B1B6893F8290010F0010000D1704761
S31500002A60FFF7D4BFA800FE1F2DE9F041254D2B68C6
S31500002A7093F82930DC072FD5234B1E5CFF2E02D19D
S31500002A800320BDE8F081002000F0B0FC6868FFF785
S31500002A90B9FA2B6893F82930D90780461FD43146F6
S31500002AA068681A4CFFF790FA01E0DCB1013C6868EF
S31500002AB0144FFFF791FA8642F7D1B8F1000F04D010
S31500002AC03B6893F82930DA0718D4002000F05EFC42
S31500002AD014B91420BDE8F0810020BDE8F081FFF7AD
S31500002AE095FFDCE7B8F1000F04D03B6893F8293076
S31500002AF0DB0703D4002000F049FCEAE7FFF758FFA4
S31500002B00E3E700BFA800FE1F703B0000FFFF0F00B9
S31500002B1008B5002000F06AFC034B5868FFF784FAFA
S31500002B20002000F033FC08BDA800FE1F08B5054BC9
S31500002B301B6893F82A309B0701D5FFF7E9FF0020B1
S31500002B4008BD00BFA800FE1F08B5002000F04EFC1F
S31500002B50034B5868FFF770FA002000F017FC08BD19
S31500002B60A800FE1F08B5054B1B6893F82A309B0783
S31500002B7001D5FFF7E9FF002008BD00BFA800FE1F32
S31500002B8070B5194D2B6893F82A3003F002030BB386
S31500002B90032802D008B1032070BD0446002000F0CF
S31500002BA025FC6868FFF750FA2B6893F82A309A07D5
S31500002BB0064613D4214668680B4CFFF727FA26B160
S31500002BC0236893F82A309B070BD4002000F0DEFB25
S31500002BD0002070BD03F0FF02104670BDFFF7B4FF82
S31500002BE0E8E7FFF795FFF0E7A800FE1F08B5054BDD
S31500002BF01A6892F82920920702D55868FFF78EF9CD
S31500002C00002008BDA800FE1F08B5054B1A6892F8FB
S31500002C102920920702D55868FFF790F9002008BDD1
S31500002C20A800FE1F08B5064B1A6892F8292052071D
S31500002C3003D501465868FFF791F9002008BD00BF8B
S31500002C40A800FE1F08B90320704738B50D46044694
S31500002C5000F0A0F807EE900AF8EE677AB7EE007A71
S31500002C60C7EE276A07EE905AB8EE677A07EE904AE3
S31500002C7026EE877AF8EE677AC7EE876AFCEEE67A82
S31500002C8017EE900AFFF77CF900280CBF12200020EF
S31500002C9038BD00BF68B1084AB2F80031C3F300037B
S31500002CA0037092F800316FF3000382F800310020C0
S31500002CB070470120704700BF00C00140104991F8DD
S31500002CC0043143F0010381F80431B1F80431DB0724
S31500002CD00CD54FF0FF3300E033B1B1F80421D20731
S31500002CE003F1FF33F8D40BB914207047044A92F865
S31500002CF0003160F3000382F800310020704700BF06
S31500002D0000C0014070B5214D82B02B689847012064
S31500002D10FFF7D4FF0021AE680320B04701211C4A0B
S31500002D20EC698DF80110032301928DF80030032021
S31500002D30A047B0F5C97FFAD169460520B0470520FE
S31500002D40A047B0F5C97FFAD10022012402236946C3
S31500002D508DF806208DF801308DF802308DF805309B
S31500002D608DF800402B698DF803408DF8044005204E
S31500002D7098472B6E04209847AB6A20469847EB6A23
S31500002D809847AB6D984702B070BD00BF043B00008A
S31500002D900000A04100B583B002A9002341F8043D1C
S31500002DA0034B06209B699847019803B05DF804FB26
S31500002DB0043B0000037870B423B1012B3BD0002004
S31500002DC070BC704742683C498A4267D93B4B3C4ECF
S31500002DD0F1251D71197A41F004011972197A41F031
S31500002DE008011972197A41F001011972197AF02451
S31500002DF041F00201B24219721C7105D91D71197A8E
S31500002E0041F0100119721C712E4B9A4294BF012396
S31500002E1002232D4A0373194692F81C3103F0070367
S31500002E208B4205D292F81C3161F3020382F81C3101
S31500002E300378012BC3D183681F4A934238D81F4BAE
S31500002E40F1221A711A7A6FF382021A721A7A6FF3E2
S31500002E50C3021A721A7A6FF300021A721A7AF021F2
S31500002E606FF341021A721971144BF1221A711A7A10
S31500002E70F0216FF304121A721971134A017B92F84A
S31500002E801C3103F00703994299D092F81C3161F383
S31500002E90020382F81C31002070BC70470B498A423D
S31500002EA0B2D8094A037392F81C31002070BC7047EF
S31500002EB0034A9342E1D8D7E7000E270700200040D7
S31500002EC000C2EB0B0068890900C0014000B4C404CD
S31500002ED0037843F003030370704700BF014B0360A0
S31500002EE0704700BF7C3B0000044B002103F1300219
S31500002EF043F8041B9342FBD1704700BFD400FE1F6A
S31500002F00024B43F820100020704700BFD400FE1F7C
S31500002F1008B57A4BB3F84031D90700F1C180774B39
S31500002F20B3F840319A0700F1B080744BB3F84031E2
S31500002F305B0700F19F80714BB3F84031180700F131
S31500002F408E806E4BB3F84031D9067CD46B4BB3F808
S31500002F504001C0F38010002869D1684BB3F84031B6
S31500002F601A0658D4654BB3F84031DB0547D4634B9A
S31500002F70B3F84031980536D4604BB3F84031590563
S31500002F8024D45E4BB3F840311A0512D45B4BB3F828
S31500002F904031DB0400D408BD594BDB6A002B40F0FE
S31500002FA0AA80564AB2F8303143F48053A2F8303141
S31500002FB008BD534B9B6A002B40F09A804F4AB2F8EB
S31500002FC0303143F40063A2F83031DFE74C4B5B6AE3
S31500002FD0002B40F08A80494AB2F8303143F48063CE
S31500002FE0A2F83031CDE7464B1B6A002B7AD1434A13
S31500002FF0B2F8303143F40073A2F83031BCE7404BED
S31500003000DB69002B6BD13D4AB2F8303143F4807353
S31500003010A2F83031ABE73A4B1B68002B5CD1374A3C
S31500003020B2F8303143F08003A2F830319AE7344BDE
S315000030305B68002B4ED1314AB2F8303143F0400381
S31500003040A2F8303189E72E4B9B69002B3FD12B4AE2
S31500003050B2F8303143F01003A2F8303176E7284B4E
S315000030605B698BBB254AB2F8303143F00803A2F8FE
S31500003070303166E7224B1B691BBB204AB2F8303160
S3150000308043F00403A2F8303155E71D4B9B68ABB9FA
S315000030901A4AB2F8303143F00203A2F8303144E75D
S315000030A0174BDB683BB9154AB2F8303143F00103E0
S315000030B0A2F8303133E703209847F4E70220984717
S315000030C0E6E704209847D8E705209847CAE7062090
S315000030D09847BCE79847AEE7002098479FE7072048
S315000030E0984790E70820984781E70920984772E7B4
S315000030F00A20984762E70B20984752E70060004095
S31500003100D400FE1F0278452A20D8284B9B5CFF2B53
S315000031101AD0F0B403F020064788407806F0FF0482
S3150000312003F01F05A6B101242B2A04FA05F627D0C1
S31500003130332A01D1012834D09B091D4A52F8233085
S3150000314081B10320F0BC704703207047012070470F
S31500003150174E38449B092D1A012256F8233002FADD
S3150000316005F699B9EFF31081012282F310881A68E7
S3150000317022EA06051D6081F310880020F0BC704726
S31500003180072FD9D9013504FA05F6D5E7EFF31081F3
S3150000319082F310881D6835431D6081F31088204630
S315000031A0ECE76A1C00FA02F6C6E700BFB83F00006B
S315000031B0A83F00000021FFF7A5BF00BFA0F1010056
S315000031C00028FBD1704700BF2DE9D04301FB00F476
S315000031D0FFF7E0FD4FF47A71A4FB018900274FF059
S315000031E0FF364F4508BF46450C4BB3FBF0F005D301
S315000031F0B8FBF0F0800860B9BDE8D0838000B4FB6E
S31500003200F0F0A0FB01018F4208BF8642F3D24FF0D7
S31500003210FF30BDE8D043FFF7D1BF00BF00CA9A3BDD
S31500003220002808DB800000F1804000F5C6400368F6
S315000032306FF31043036070470B4A0C4B10B49B1A94
S315000032400B4CDB08236063B10A4800219388C3F363
S31500003250090340F8043F236801318B4202F108025A
S31500003260F4D85DF8044B7047000500001005000017
S315000032700401FE1FFC620040164B10B41C687CB1B2
S31500003280154B00681A681368834218BF002304D1DF
S315000032900AE052F8041F814207D00133A342F8D155
S315000032A003205DF8044B704700230C4A1268012185
S315000032B0134403E0C3E8401F0028F2D0D3E84F2FA1
S315000032C012F0FF0FF6D0BFF32F8F08205DF8044BE6
S315000032D0704700BF0801FE1F0C01FE1F1001FE1FF4
S315000032E00F4B10B41C687CB10E4B00681A6813684B
S315000032F0984218BF002304D109E052F8041F814206
S3150000330006D00133A342F8D15DF8044B7047002381
S31500003310054A12680021D1545DF8044B704700BF7E
S315000033200801FE1F0C01FE1F1001FE1FF0B5114D16
S31500003330114C1249124A134B134F0D60641BA4081B
S3150000334014601F6084B105EB84064FF0000E55F83B
S31500003350040B084A002352F8041B814205D00133AE
S315000033609C42F8D1AE42F2D1F0BDAE4207F803E07E
S31500003370EDD1F9E710050000C00600000C01FE1FA4
S315000033800801FE1F1001FE1F0C00FE1FEFF3108147
S31500003390012383F31088124B33F8102092B22AB11E
S315000033A033F81020013A92B223F8102033F8103087
S315000033B09BB293B910B40B4A0B4CB2F8FE3334F8F7
S315000033C010009BB243F4254323EA0003A2F8FE3320
S315000033D081F310885DF8044B704781F310887047BD
S315000033E01401FE1F00E001400440000030B4EFF37A
S315000033F01084012383F310880D4A32F810309BB2F3
S315000034005BB90C4D0C49B5F8FE3331F810109BB280
S3150000341043F425430B43A5F8FE3332F8103001334D
S315000034209BB222F8103084F3108830BC704700BF7E
S315000034301401FE1F00E0014004400000024B002280
S315000034401A805A809A8070471401FE1F00BE70478A
S3150000345008B500F005F800F05DF9FEE7704700BF1B
S31500003460284AD2F8883043F4700370B50020C2F8B9
S315000034708830FFF7F3FFFFF737FD234B1B689847AC
S31500003480FFF7DCFFFFF73EFC204A214B21481B6873
S315000034900024148098472049204B8B4218BF2246AF
S315000034A003D003F8012D9942FBD11D481D4B9842CC
S315000034B006D01D4A12F8011B03F8011B8342F9D1FD
S315000034C0FFF768FC194E1A4D1A4B761B1860B6109A
S315000034D00120FFF7C3FF002EC8BF002405DD01341D
S315000034E055F8043B9847A642F9D1FFF71FFFFFF7AF
S315000034F0A3FE114B11481B6898470020BDE8704099
S3150000350000F01EB800ED00E0A83A0000CC00FE1F57
S31500003510B839000060400000B000FE1F6801FE1FC1
S315000035207800FE1F0000FE1FEC4300000400FE1F93
S315000035300000FE1F1C01FE1FC43A00000C400000E4
S3150000354000F044B882B04FF0C84300210091009AC1
S315000035501A7D61F300021A751A8DD0B1202161F32C
S315000035600F221A851A8D4FF0C04142F080021A854B
S315000035700A68009240F6FF721946019204E0019B28
S31500003580013B0193019A12B18A6A5206F7D502B03D
S3150000359070474FF0C04142F47F421A850A68009294
S315000035A01A8D60F3C7121A850A68009240F6FF71F9
S315000035B01A46019105E0019B013B0193019B002BFB
S315000035C0E5D0936A5B06F6D402B07047F8B54D4A6B
S315000035D011684FF0C84400236FF386111020116064
S315000035E02063A36123626363C4F80438227A63F319
S315000035F004022272237DFF2243F001032375226118
S31500003600237D662243F0010323752261237D9922DF
S3150000361043F0010323752261237D43F001032375E3
S3150000362001212320FFF7D0FD9F2323612269364B1A
S31500003630D2B21A702169C9B259702069257DC0B20B
S3150000364045F00105EF2A9870257504D000221A70FE
S315000036505A709A70F8BD4029F8D11728F6D105217D
S3150000366021612669227D294B294F42F00102352529
S315000036702275256122691A70227D42F001022275A7
S31500003680228D042060F303022285227960F303026F
S31500003690227150222261227D42F00102227593F8A6
S315000036A000E0F2B24EF002061E700126266122618B
S315000036B01A782261227D324322752061227D3243AF
S315000036C02275228861F302022280216122693A7002
S315000036D0227D32432275256122691A70237D334388
S315000036E02375238843F040032380A369DB074FF04B
S315000036F0C845FAD40120FFF725FF2B7D6FF30003A1
S315000037002B75F8BD007004402001FE1F2801FE1F26
S315000037102401FE1F08B500F0EBF8002008BD00BF2D
S31500003720034B1A781AB9034901220A701A707047B6
S315000037306401FE1F5C01FE1F034B1A781AB9034889
S3150000374001210270197070476401FE1F5C01FE1FA3
S3150000375038B5124B124C5D6800212B6A21604FF47C
S31500003760C060984720684FF47A71FFF72DFD2B6AE9
S31500003770012140F20160984720684FF47A71FFF703
S3150000378023FD2B6A012140F20260984720684FF41E
S315000037907A71BDE83840FFF717BD00BF184000003A
S315000037A06001FE1FF8B5124B124D5F6805244FF4F9
S315000037B0FA763B6A2E6000214FF4C06098474FF4BA
S315000037C07A712868FFF700FD3B6A2E6001214FF4ED
S315000037D0C06098474FF47A712868FFF7F5FC631EBE
S315000037E013F0FF04E5D1044B02221A70F8BD00BFA6
S315000037F0184000006001FE1F6401FE1FF8B5214C51
S315000038002378022B1FD0042B00D0F8BD1E4B1F4D72
S315000038105E684FF4FA622A60336A002140F2026061
S31500003820984728684FF47A71FFF7CEFC336A002177
S3150000383040F20160984728684FF47A71FFF7C4FC9C
S3150000384000232370F8BD104B104D5F6800263B6ABD
S315000038502E6001214FF4C060984728684FF47A71B2
S31500003860FFF7B2FC4FF4FA623B6A2A60314640F237
S315000038700260984728684FF47A71FFF7A5FC032386
S315000038802370F8BD6401FE1F184000006001FE1F92
S3150000389038B5134B134C5D6864222B6A22600121F4
S315000038A040F20260984720684FF47A71FFF78CFC6B
S315000038B00D4B1B7841F28832226013B140F6B833C3
S315000038C023602B6A002140F20160984720684FF47C
S315000038D07A71FFF779FC054B04221A7038BD00BFD8
S315000038E0184000006001FE1F5C01FE1F6401FE1F00
S315000038F008B5104B104C9A685968126818689047BA
S315000039000E4B9A6859681268186890472378042BFA
S31500003910FDD8DFE803F00906030C0300FFF76EFF8E
S31500003920F4E7FFF73FFFF1E7FFF712FFEEE7FFF7D8
S31500003930AFFFEBE7204000006401FE1F2C400000B3
S315000039404275696C7420776974682052656E657378
S3150000395061732053796E657267792028544D29204A
S31500003960536F667477617265205061636B6167653A
S315000039702076657273696F6E20312E342E302B627D
S3150000398075696C642E3539646465633664376338EB
S3150000399061000000312E342E3000000000000401CA
S315000039A0F8B500BFF8BC08BC9E467047F8B500BF26
S315000039B0F8BC08BC9E467047C50B0000E50A00002F
S315000039C0390C0000090D0000B50700004108000091
S315000039D08D0A00001D070000AD080000B1090000B7
S315000039E08D0700000908000065070000790900003E
S315000039F095080000020403040404FFFF59100000A8
S31500003A00650E0000A90E0000D50D0000010E000095
S31500003A10290E0000F90E0000510E000004010201FB
S31500003A20000103070F1F3F7F00010102010202038D
S31500003A300102020302030304010202030203030458
S31500003A400203030403040405010202030203030440
S31500003A500203030403040405020303040304040528
S31500003A600304040504050506010202030203030418
S31500003A700203030403040405020303040304040508
S31500003A8003040405040505060203030403040405F0
S31500003A9003040405040505060304040504050506D8
S31500003AA00405050605060607F111000019110000B8
S31500003AB041110000AD12000071110000DD1100007F
S31500003AC0040103018115000051150000ED140000EA
S31500003AD00115000015150000291500003D15000010
S31500003AE003010201010002000400FFFF01000200C1
S31500003AF00300FFFF000001000200FFFF00000100BD
S31500003B00000002008920000029280000B9230000D7
S31500003B1061250000652600003D2100007D2900008A
S31500003B2015230000652100004922000099220000AB
S31500003B30AD220000C1220000D5220000ED220000C7
S31500003B4001230000692A0000F5290000512A00001F
S31500003B50812B00002D2B0000652B0000ED2B0000B3
S31500003B60092C0000252C0000452C000075200000C3
S31500003B7004FF000201FFFFFF0901030140420F009D
S31500003B800000000040420F0000000000040000009A
S31500003B9002000000002D310100366E0130040201E2
S31500003BA0020A1E00D0FE01000200031004000000FD
S31500003BB01C00000013000000030E0010FFFFFFFFB3
S31500003BC0FFFFFFFFFFFFFFFFFFFFFFFF52374653D9
S31500003BD03747323748334130314346435753313400
S31500003BE034314131303000000000000002B0640082
S31500003BF0F000000001000810F3E0BFB60579334974
S31500003C008B43F24F1693A05D1E7A1DD8700D7A82F3
S31500003C1042786A5EC35C0B19040050110000004034
S31500003C20FFFF0008FFC110081FFF1B057F002807C4
S31500003C303F002F063E8047804C806A0064806B0000
S31500003C40820056806E00BD80B08083006F005B806E
S31500003C507000720071007300740075008A8086809F
S31500003C608D80CF8076006C006D00B5807B007A0079
S31500003C707C00A08077007800790090809A809780F9
S31500003C8084009D80A3807D00D580D880A680850095
S31500003C90AD80A980DE807E007F008000810000006C
S31500003CA00607021000000000FFFF000000200000D1
S31500003CB00001000000000100FFFF3F00008000003F
S31500003CC0000100000607011000001040FFFF104031
S31500003CD040000000040000000A000410070B0B0F50
S31500003CE00000FE1FFFFFFF1F00000020FFFF032054
S31500003CF000000420FFFF072000E00F20FFFF0F2039
S31500003D0001070010080040000050004008030110A1
S31500003D1000520040015F00100100000C000000404E
S31500003D20011F001001000001000C004000030010FC
S31500003D3001000001000D0040010700100100000114
S31500003D4000E07F40000300100100100000C07F402B
S31500003D50E0010310B0010310C0010310200003109E
S31500003D605400031030000F107004031000080710F1
S31500003D70100003104604031041050310400703100A
S31500003D80000C0310400407104204031044040310FF
S31500003D90D0050310E0050B10F00503100F07071000
S31500003DA040090310000E0711400E0310600E0310A9
S31500003DB06000071010040310B007071080040310FA
S31500003DC00200001003000001003005400703030055
S31500003DD0000F00100A00200000000740000F00102E
S31500003DE00200000100200740020000100E00000142
S31500003DF0008007403F1F1F1F0F0F0F0F0707070702
S31500003E00070700000003001001001000F08F0740B4
S31500003E10000300100400000100200440000300100D
S31500003E2002000001004008400007001006000001E3
S31500003E300050084000070010020000100000054076
S31500003E4000070010020000040020064002000010D7
S31500003E5002000002004006400707000000070011AC
S31500003E600200000100E0044001030010C00004004D
S31500003E700008044008030110000D0440040002106D
S31500003E800200000200C005402B2B00007F007F00CF
S31500003E903F000F007F006F001F000F00040001109D
S31500003EA00C00200000000440070B0B0B0B03030360
S31500003EB003030303FFCFFFC7FFFFFFFFFF30FF3002
S31500003EC0FFFFFFFFFFFFFFFFFFFFFF38FFFFFFFFC3
S31500003ED0FFFFFF00FF3F7F00FFFFE301FFFF030738
S31500003EE0FF0003000400021001002000001008403B
S31500003EF003000000FFFFFF0F030000000003001097
S31500003F00010000020000006401170010010000100B
S31500003F1000000940001F00200100000200000640CA
S31500003F2001030010010000010044064001030010D7
S31500003F3001000001004506400103001001000008D1
S31500003F40005006400003001002000004005806401E
S31500003F50FFFFFFFFFFFFFFFFFFFFFFFFFFFFFFFF6B
S31500003F60FFFFFFFFFFFFFFFFFFFFFFFFFFFFFFFF5B
S31500003F70FFFFFFFFFFFFFFFFFFFFFFFFFFFFFFFF4B
S31500003F80FFFFFFFFFFFFFFFFFFFFFFFFFFFFFFFF3B
S31500003F90FFFFFFFFFFFFFFFFFFFFFFFFFFFFFFFF2B
S31500003FA0FFFFFFFF725ABC9E1CE0014000700440F8
S31500003FB00470044008700440FFFFFFFFFFFFFF3658
S31500003FC036FFFF8EFFFFFFFFFF808D815F49538322
S31500003FD09FFFFFFFFFFFFFFFD0F4D6FFDCFFFFFFD1
S31500003FE0FFFFFFE5EEFFFFC34245466B8C8988FF66
S31500003FF0FFFFFFFFFFFFFFFF4F6D82848685FFFFF8
S3150000400000050000010002000800FFFF010000009B
S31500004010000000000000000000000000B8390000A9
S315000040204801FE1F38400000FC3900003401FE1F25
S315000040304C400000FC3900000A0B0003010100009F
S315000040403937000020400000000000000B0B000381
S3150000405001010000213700002C4000000000000094
S3150000406070000000684000000080000000000000B2
S315000040700080000001000000008000000200000037
S3150000408000400000040000000040000005000000A1
S31500004090004000000600000000800000080000004C
S315000040A00080000009000000004000000A00000037
S315000040B0008000000E000000008000000F000000DD
S315000040C000040106000100000004010601010000D1
S315000040D000040106020100000004010603010000BD
S315000040E000040104040100000004010405010000AD
S315000040F0000C010406010000040400000701000092
S315000041000000010008010000000001000901000094
S31500004110000001000A010000004000000B01000041
S31500004120000000000C010000040400000D01000066
S31500004130000C01040202000000000000030200005F
S315000041400000010C040200000000010C0502000042
S315000041500000010C060200000000010C070200002E
S31500004160000001090C020000000001090D02000018
S315000041700000010000030000000401040103000028
S315000041800004010402030000000000000303000015
S3150000419000040104040300000004010405030000F8
S315000041A0000C0104060300000404000007030000DD
S315000041B000000000080300000404000009030000DA
S315000041C0000000000A030000000000000B030000CE
S315000041D0000000000C030000000401190D0300009C
S315000041E0000401190E030000000401190F0300006A
S315000041F0004000000004000000000110010400005F
S31500004200000001100204000000040117030400006E
S315000042100004011704040000000C01170504000047
S31500004220000C01170604000000000113070400003B
S315000042300000010C080400000000010C0904000045
S31500004240000401040A040000000401040B04000039
S31500004250000C01040C040000040400000D0400001E
S315000042600000010C0E0400000000010C0F04000009
S31500004270000C011100050000000C011101050000F1
S31500004280000C011102050000000C011103050000DD
S31500004290000C011104050000000C011105050000C9
S315000042A000000000060500000000000007050000F1
S315000042B004040000000600000404000001060000DB
S315000042C004040000020600000000000003060000CF
S315000042D000000000040600000000000005060000C3
S315000042E00004011906060000000401190706000073
S315000042F00000000008060000000000000D06000097
S31500004300000000000E060000000401190F06000060
S31500004310000C011700070000000C01170107000040
S31500004320000C011702070000000C0117030700002C
S31500004330000C011704070000000C01170507000018
S315000043400004010506070000000401050707000038
S315000043500404000000080000040400000108000036
S3150000436000040119020800000004011903080000F6
S3150000437000040119040800000404000006080000F7
S31500004380000C0119000900000004011901090000D0
S3150000439000040119050900000004011906090000BE
S315000043A000040119070900000004011908090000AA
S315000043B000040119000A000000040119010A0000A6
S315000043C000040119080A000000040119090A000086
S315000043D0000401190A0A000000000114000B000085
S311000043E000000114010B000000000000AA
S315000043ECE5060000C1060000000000000000000009
S315000043FC00000000000000000000000000000000AB
S3150000440C000000000000000000000000000000009A
S3150000441C000000000000000000000000000000008A
S3150000442C000000000000000000000000000000007A
S3150000443C000000000000000000000000000000006A
S3150000444C000000000000000000000000000000005A
S30D0000445C000000000000000052
S31540120050FFFFFFFFFFFFFFFFFFFFFFFFFFFFFFFF58
S7050000345175
